{
  "contractName": "BettingGame",
  "abi": [
    {
      "inputs": [],
      "stateMutability": "nonpayable",
      "type": "constructor"
    },
    {
      "anonymous": false,
      "inputs": [
        {
          "indexed": true,
          "internalType": "address",
          "name": "owner",
          "type": "address"
        },
        {
          "indexed": true,
          "internalType": "address",
          "name": "approved",
          "type": "address"
        },
        {
          "indexed": true,
          "internalType": "uint256",
          "name": "tokenId",
          "type": "uint256"
        }
      ],
      "name": "Approval",
      "type": "event"
    },
    {
      "anonymous": false,
      "inputs": [
        {
          "indexed": true,
          "internalType": "address",
          "name": "owner",
          "type": "address"
        },
        {
          "indexed": true,
          "internalType": "address",
          "name": "operator",
          "type": "address"
        },
        {
          "indexed": false,
          "internalType": "bool",
          "name": "approved",
          "type": "bool"
        }
      ],
      "name": "ApprovalForAll",
      "type": "event"
    },
    {
      "anonymous": false,
      "inputs": [
        {
          "indexed": true,
          "internalType": "address",
          "name": "player",
          "type": "address"
        },
        {
          "indexed": false,
          "internalType": "uint256",
          "name": "amount",
          "type": "uint256"
        },
        {
          "indexed": false,
          "internalType": "uint256",
          "name": "betId",
          "type": "uint256"
        },
        {
          "indexed": false,
          "internalType": "bool",
          "name": "isHead",
          "type": "bool"
        }
      ],
      "name": "BetPlaced",
      "type": "event"
    },
    {
      "anonymous": false,
      "inputs": [
        {
          "indexed": true,
          "internalType": "address",
          "name": "player",
          "type": "address"
        },
        {
          "indexed": false,
          "internalType": "uint256",
          "name": "amount",
          "type": "uint256"
        },
        {
          "indexed": false,
          "internalType": "bool",
          "name": "win",
          "type": "bool"
        },
        {
          "indexed": false,
          "internalType": "uint256",
          "name": "betId",
          "type": "uint256"
        }
      ],
      "name": "BetResult",
      "type": "event"
    },
    {
      "anonymous": false,
      "inputs": [
        {
          "indexed": true,
          "internalType": "address",
          "name": "from",
          "type": "address"
        },
        {
          "indexed": true,
          "internalType": "address",
          "name": "to",
          "type": "address"
        },
        {
          "indexed": true,
          "internalType": "uint256",
          "name": "tokenId",
          "type": "uint256"
        }
      ],
      "name": "Transfer",
      "type": "event"
    },
    {
      "inputs": [
        {
          "internalType": "address",
          "name": "to",
          "type": "address"
        },
        {
          "internalType": "uint256",
          "name": "tokenId",
          "type": "uint256"
        }
      ],
      "name": "approve",
      "outputs": [],
      "stateMutability": "nonpayable",
      "type": "function"
    },
    {
      "inputs": [
        {
          "internalType": "address",
          "name": "owner",
          "type": "address"
        }
      ],
      "name": "balanceOf",
      "outputs": [
        {
          "internalType": "uint256",
          "name": "",
          "type": "uint256"
        }
      ],
      "stateMutability": "view",
      "type": "function",
      "constant": true
    },
    {
      "inputs": [],
      "name": "betId",
      "outputs": [
        {
          "internalType": "uint256",
          "name": "",
          "type": "uint256"
        }
      ],
      "stateMutability": "view",
      "type": "function",
      "constant": true
    },
    {
      "inputs": [
        {
          "internalType": "uint256",
          "name": "",
          "type": "uint256"
        }
      ],
      "name": "bets",
      "outputs": [
        {
          "internalType": "address",
          "name": "player",
          "type": "address"
        },
        {
          "internalType": "uint256",
          "name": "amount",
          "type": "uint256"
        },
        {
          "internalType": "bool",
          "name": "isHead",
          "type": "bool"
        }
      ],
      "stateMutability": "view",
      "type": "function",
      "constant": true
    },
    {
      "inputs": [
        {
          "internalType": "uint256",
          "name": "tokenId",
          "type": "uint256"
        }
      ],
      "name": "getApproved",
      "outputs": [
        {
          "internalType": "address",
          "name": "",
          "type": "address"
        }
      ],
      "stateMutability": "view",
      "type": "function",
      "constant": true
    },
    {
      "inputs": [
        {
          "internalType": "address",
          "name": "owner",
          "type": "address"
        },
        {
          "internalType": "address",
          "name": "operator",
          "type": "address"
        }
      ],
      "name": "isApprovedForAll",
      "outputs": [
        {
          "internalType": "bool",
          "name": "",
          "type": "bool"
        }
      ],
      "stateMutability": "view",
      "type": "function",
      "constant": true
    },
    {
      "inputs": [],
      "name": "name",
      "outputs": [
        {
          "internalType": "string",
          "name": "",
          "type": "string"
        }
      ],
      "stateMutability": "view",
      "type": "function",
      "constant": true
    },
    {
      "inputs": [
        {
          "internalType": "uint256",
          "name": "tokenId",
          "type": "uint256"
        }
      ],
      "name": "ownerOf",
      "outputs": [
        {
          "internalType": "address",
          "name": "",
          "type": "address"
        }
      ],
      "stateMutability": "view",
      "type": "function",
      "constant": true
    },
    {
      "inputs": [
        {
          "internalType": "address",
          "name": "from",
          "type": "address"
        },
        {
          "internalType": "address",
          "name": "to",
          "type": "address"
        },
        {
          "internalType": "uint256",
          "name": "tokenId",
          "type": "uint256"
        }
      ],
      "name": "safeTransferFrom",
      "outputs": [],
      "stateMutability": "nonpayable",
      "type": "function"
    },
    {
      "inputs": [
        {
          "internalType": "address",
          "name": "from",
          "type": "address"
        },
        {
          "internalType": "address",
          "name": "to",
          "type": "address"
        },
        {
          "internalType": "uint256",
          "name": "tokenId",
          "type": "uint256"
        },
        {
          "internalType": "bytes",
          "name": "_data",
          "type": "bytes"
        }
      ],
      "name": "safeTransferFrom",
      "outputs": [],
      "stateMutability": "nonpayable",
      "type": "function"
    },
    {
      "inputs": [
        {
          "internalType": "address",
          "name": "operator",
          "type": "address"
        },
        {
          "internalType": "bool",
          "name": "approved",
          "type": "bool"
        }
      ],
      "name": "setApprovalForAll",
      "outputs": [],
      "stateMutability": "nonpayable",
      "type": "function"
    },
    {
      "inputs": [
        {
          "internalType": "bytes4",
          "name": "interfaceId",
          "type": "bytes4"
        }
      ],
      "name": "supportsInterface",
      "outputs": [
        {
          "internalType": "bool",
          "name": "",
          "type": "bool"
        }
      ],
      "stateMutability": "view",
      "type": "function",
      "constant": true
    },
    {
      "inputs": [],
      "name": "symbol",
      "outputs": [
        {
          "internalType": "string",
          "name": "",
          "type": "string"
        }
      ],
      "stateMutability": "view",
      "type": "function",
      "constant": true
    },
    {
      "inputs": [
        {
          "internalType": "uint256",
          "name": "tokenId",
          "type": "uint256"
        }
      ],
      "name": "tokenURI",
      "outputs": [
        {
          "internalType": "string",
          "name": "",
          "type": "string"
        }
      ],
      "stateMutability": "view",
      "type": "function",
      "constant": true
    },
    {
      "inputs": [
        {
          "internalType": "address",
          "name": "from",
          "type": "address"
        },
        {
          "internalType": "address",
          "name": "to",
          "type": "address"
        },
        {
          "internalType": "uint256",
          "name": "tokenId",
          "type": "uint256"
        }
      ],
      "name": "transferFrom",
      "outputs": [],
      "stateMutability": "nonpayable",
      "type": "function"
    },
    {
      "inputs": [
        {
          "internalType": "bool",
          "name": "_isHead",
          "type": "bool"
        }
      ],
      "name": "placeBet",
      "outputs": [],
      "stateMutability": "payable",
      "type": "function",
      "payable": true
    },
    {
      "inputs": [
        {
          "internalType": "uint256",
          "name": "_betId",
          "type": "uint256"
        }
      ],
      "name": "resolveBet",
      "outputs": [],
      "stateMutability": "nonpayable",
      "type": "function"
    }
  ],
  "bytecode": "0x60806040523480156200001157600080fd5b506040518060400160405280600b81526020017f42657474696e6747616d650000000000000000000000000000000000000000008152506040518060400160405280600381526020017f4245540000000000000000000000000000000000000000000000000000000000815250816000908051906020019062000096929190620000b8565b508060019080519060200190620000af929190620000b8565b505050620001cd565b828054620000c69062000168565b90600052602060002090601f016020900481019282620000ea576000855562000136565b82601f106200010557805160ff191683800117855562000136565b8280016001018555821562000136579182015b828111156200013557825182559160200191906001019062000118565b5b50905062000145919062000149565b5090565b5b80821115620001645760008160009055506001016200014a565b5090565b600060028204905060018216806200018157607f821691505b602082108114156200019857620001976200019e565b5b50919050565b7f4e487b7100000000000000000000000000000000000000000000000000000000600052602260045260246000fd5b612bf180620001dd6000396000f3fe6080604052600436106100fe5760003560e01c806342842e0e1161009557806395d89b411161006457806395d89b411461034c578063a22cb46514610377578063b88d4fde146103a0578063c87b56dd146103c9578063e985e9c514610406576100fe565b806342842e0e146102805780634c36c36e146102a95780636352211e146102d257806370a082311461030f576100fe565b8063096a3778116100d1578063096a3778146101d157806322af00fa146101ed57806323b872dd1461022c57806327bce91b14610255576100fe565b806301ffc9a71461010357806306fdde0314610140578063081812fc1461016b578063095ea7b3146101a8575b600080fd5b34801561010f57600080fd5b5061012a60048036038101906101259190611c62565b610443565b604051610137919061207c565b60405180910390f35b34801561014c57600080fd5b50610155610525565b6040516101629190612097565b60405180910390f35b34801561017757600080fd5b50610192600480360381019061018d9190611cb4565b6105b7565b60405161019f9190611fde565b60405180910390f35b3480156101b457600080fd5b506101cf60048036038101906101ca9190611bfd565b61063c565b005b6101eb60048036038101906101e69190611c39565b610754565b005b3480156101f957600080fd5b50610214600480360381019061020f9190611cb4565b6108c2565b60405161022393929190612045565b60405180910390f35b34801561023857600080fd5b50610253600480360381019061024e9190611af7565b610919565b005b34801561026157600080fd5b5061026a610979565b6040516102779190612299565b60405180910390f35b34801561028c57600080fd5b506102a760048036038101906102a29190611af7565b61097f565b005b3480156102b557600080fd5b506102d060048036038101906102cb9190611cb4565b61099f565b005b3480156102de57600080fd5b506102f960048036038101906102f49190611cb4565b610be5565b6040516103069190611fde565b60405180910390f35b34801561031b57600080fd5b5061033660048036038101906103319190611a92565b610c97565b6040516103439190612299565b60405180910390f35b34801561035857600080fd5b50610361610d4f565b60405161036e9190612097565b60405180910390f35b34801561038357600080fd5b5061039e60048036038101906103999190611bc1565b610de1565b005b3480156103ac57600080fd5b506103c760048036038101906103c29190611b46565b610df7565b005b3480156103d557600080fd5b506103f060048036038101906103eb9190611cb4565b610e59565b6040516103fd9190612097565b60405180910390f35b34801561041257600080fd5b5061042d60048036038101906104289190611abb565b610f00565b60405161043a919061207c565b60405180910390f35b60007f80ac58cd000000000000000000000000000000000000000000000000000000007bffffffffffffffffffffffffffffffffffffffffffffffffffffffff1916827bffffffffffffffffffffffffffffffffffffffffffffffffffffffff1916148061050e57507f5b5e139f000000000000000000000000000000000000000000000000000000007bffffffffffffffffffffffffffffffffffffffffffffffffffffffff1916827bffffffffffffffffffffffffffffffffffffffffffffffffffffffff1916145b8061051e575061051d82610f94565b5b9050919050565b60606000805461053490612586565b80601f016020809104026020016040519081016040528092919081815260200182805461056090612586565b80156105ad5780601f10610582576101008083540402835291602001916105ad565b820191906000526020600020905b81548152906001019060200180831161059057829003601f168201915b5050505050905090565b60006105c282610ffe565b610601576040517f08c379a00000000000000000000000000000000000000000000000000000000081526004016105f8906121b9565b60405180910390fd5b6004600083815260200190815260200160002060009054906101000a900473ffffffffffffffffffffffffffffffffffffffff169050919050565b600061064782610be5565b90508073ffffffffffffffffffffffffffffffffffffffff168373ffffffffffffffffffffffffffffffffffffffff1614156106b8576040517f08c379a00000000000000000000000000000000000000000000000000000000081526004016106af90612219565b60405180910390fd5b8073ffffffffffffffffffffffffffffffffffffffff166106d761106a565b73ffffffffffffffffffffffffffffffffffffffff16148061070657506107058161070061106a565b610f00565b5b610745576040517f08c379a000000000000000000000000000000000000000000000000000000000815260040161073c90612159565b60405180910390fd5b61074f8383611072565b505050565b60003411610797576040517f08c379a000000000000000000000000000000000000000000000000000000000815260040161078e90612259565b60405180910390fd5b60405180606001604052803373ffffffffffffffffffffffffffffffffffffffff16815260200134815260200182151581525060076000600654815260200190815260200160002060008201518160000160006101000a81548173ffffffffffffffffffffffffffffffffffffffff021916908373ffffffffffffffffffffffffffffffffffffffff1602179055506020820151816001015560408201518160020160006101000a81548160ff0219169083151502179055509050503373ffffffffffffffffffffffffffffffffffffffff167feecad545a2ea4b549fd96ca809f2218e8daec7f3214b4813f4cddbc406ea803e346006548460405161089f939291906122eb565b60405180910390a2600660008154809291906108ba906125e9565b919050555050565b60076020528060005260406000206000915090508060000160009054906101000a900473ffffffffffffffffffffffffffffffffffffffff16908060010154908060020160009054906101000a900460ff16905083565b61092a61092461106a565b8261112b565b610969576040517f08c379a000000000000000000000000000000000000000000000000000000000815260040161096090612239565b60405180910390fd5b610974838383611209565b505050565b60065481565b61099a83838360405180602001604052806000815250610df7565b505050565b60065481106109e3576040517f08c379a00000000000000000000000000000000000000000000000000000000081526004016109da906121d9565b60405180910390fd5b6000600760008381526020019081526020016000206040518060600160405290816000820160009054906101000a900473ffffffffffffffffffffffffffffffffffffffff1673ffffffffffffffffffffffffffffffffffffffff1673ffffffffffffffffffffffffffffffffffffffff168152602001600182015481526020016002820160009054906101000a900460ff1615151515815250509050806000015173ffffffffffffffffffffffffffffffffffffffff163373ffffffffffffffffffffffffffffffffffffffff1614610af2576040517f08c379a0000000000000000000000000000000000000000000000000000000008152600401610ae990612279565b60405180910390fd5b600080600242610b029190612632565b149050600081151583604001511515149050600081610b22576000610b34565b60028460200151610b339190612442565b5b90508115610bde57836000015173ffffffffffffffffffffffffffffffffffffffff166108fc829081150290604051600060405180830381858888f19350505050158015610b86573d6000803e3d6000fd5b50836000015173ffffffffffffffffffffffffffffffffffffffff167feb446311b6f1618ea6ed378e6b78ded7873f1f1b279cbd759aae44d2145df668828488604051610bd5939291906122b4565b60405180910390a25b5050505050565b6000806002600084815260200190815260200160002060009054906101000a900473ffffffffffffffffffffffffffffffffffffffff169050600073ffffffffffffffffffffffffffffffffffffffff168173ffffffffffffffffffffffffffffffffffffffff161415610c8e576040517f08c379a0000000000000000000000000000000000000000000000000000000008152600401610c8590612199565b60405180910390fd5b80915050919050565b60008073ffffffffffffffffffffffffffffffffffffffff168273ffffffffffffffffffffffffffffffffffffffff161415610d08576040517f08c379a0000000000000000000000000000000000000000000000000000000008152600401610cff90612179565b60405180910390fd5b600360008373ffffffffffffffffffffffffffffffffffffffff1673ffffffffffffffffffffffffffffffffffffffff168152602001908152602001600020549050919050565b606060018054610d5e90612586565b80601f0160208091040260200160405190810160405280929190818152602001828054610d8a90612586565b8015610dd75780601f10610dac57610100808354040283529160200191610dd7565b820191906000526020600020905b815481529060010190602001808311610dba57829003601f168201915b5050505050905090565b610df3610dec61106a565b8383611470565b5050565b610e08610e0261106a565b8361112b565b610e47576040517f08c379a0000000000000000000000000000000000000000000000000000000008152600401610e3e90612239565b60405180910390fd5b610e53848484846115dd565b50505050565b6060610e6482610ffe565b610ea3576040517f08c379a0000000000000000000000000000000000000000000000000000000008152600401610e9a906121f9565b60405180910390fd5b6000610ead611639565b90506000815111610ecd5760405180602001604052806000815250610ef8565b80610ed784611650565b604051602001610ee8929190611fba565b6040516020818303038152906040525b915050919050565b6000600560008473ffffffffffffffffffffffffffffffffffffffff1673ffffffffffffffffffffffffffffffffffffffff16815260200190815260200160002060008373ffffffffffffffffffffffffffffffffffffffff1673ffffffffffffffffffffffffffffffffffffffff16815260200190815260200160002060009054906101000a900460ff16905092915050565b60007f01ffc9a7000000000000000000000000000000000000000000000000000000007bffffffffffffffffffffffffffffffffffffffffffffffffffffffff1916827bffffffffffffffffffffffffffffffffffffffffffffffffffffffff1916149050919050565b60008073ffffffffffffffffffffffffffffffffffffffff166002600084815260200190815260200160002060009054906101000a900473ffffffffffffffffffffffffffffffffffffffff1673ffffffffffffffffffffffffffffffffffffffff1614159050919050565b600033905090565b816004600083815260200190815260200160002060006101000a81548173ffffffffffffffffffffffffffffffffffffffff021916908373ffffffffffffffffffffffffffffffffffffffff160217905550808273ffffffffffffffffffffffffffffffffffffffff166110e583610be5565b73ffffffffffffffffffffffffffffffffffffffff167f8c5be1e5ebec7d5bd14f71427d1e84f3dd0314c0f7b2291e5b200ac8c7c3b92560405160405180910390a45050565b600061113682610ffe565b611175576040517f08c379a000000000000000000000000000000000000000000000000000000000815260040161116c90612139565b60405180910390fd5b600061118083610be5565b90508073ffffffffffffffffffffffffffffffffffffffff168473ffffffffffffffffffffffffffffffffffffffff1614806111ef57508373ffffffffffffffffffffffffffffffffffffffff166111d7846105b7565b73ffffffffffffffffffffffffffffffffffffffff16145b8061120057506111ff8185610f00565b5b91505092915050565b8273ffffffffffffffffffffffffffffffffffffffff1661122982610be5565b73ffffffffffffffffffffffffffffffffffffffff161461127f576040517f08c379a0000000000000000000000000000000000000000000000000000000008152600401611276906120d9565b60405180910390fd5b600073ffffffffffffffffffffffffffffffffffffffff168273ffffffffffffffffffffffffffffffffffffffff1614156112ef576040517f08c379a00000000000000000000000000000000000000000000000000000000081526004016112e6906120f9565b60405180910390fd5b6112fa8383836117fd565b611305600082611072565b6001600360008573ffffffffffffffffffffffffffffffffffffffff1673ffffffffffffffffffffffffffffffffffffffff1681526020019081526020016000206000828254611355919061249c565b925050819055506001600360008473ffffffffffffffffffffffffffffffffffffffff1673ffffffffffffffffffffffffffffffffffffffff16815260200190815260200160002060008282546113ac91906123bb565b92505081905550816002600083815260200190815260200160002060006101000a81548173ffffffffffffffffffffffffffffffffffffffff021916908373ffffffffffffffffffffffffffffffffffffffff160217905550808273ffffffffffffffffffffffffffffffffffffffff168473ffffffffffffffffffffffffffffffffffffffff167fddf252ad1be2c89b69c2b068fc378daa952ba7f163c4a11628f55a4df523b3ef60405160405180910390a461146b838383611802565b505050565b8173ffffffffffffffffffffffffffffffffffffffff168373ffffffffffffffffffffffffffffffffffffffff1614156114df576040517f08c379a00000000000000000000000000000000000000000000000000000000081526004016114d690612119565b60405180910390fd5b80600560008573ffffffffffffffffffffffffffffffffffffffff1673ffffffffffffffffffffffffffffffffffffffff16815260200190815260200160002060008473ffffffffffffffffffffffffffffffffffffffff1673ffffffffffffffffffffffffffffffffffffffff16815260200190815260200160002060006101000a81548160ff0219169083151502179055508173ffffffffffffffffffffffffffffffffffffffff168373ffffffffffffffffffffffffffffffffffffffff167f17307eab39ab6107e8899845ad3d59bd9653f200f220920489ca2b5937696c31836040516115d0919061207c565b60405180910390a3505050565b6115e8848484611209565b6115f484848484611807565b611633576040517f08c379a000000000000000000000000000000000000000000000000000000000815260040161162a906120b9565b60405180910390fd5b50505050565b606060405180602001604052806000815250905090565b60606000821415611698576040518060400160405280600181526020017f300000000000000000000000000000000000000000000000000000000000000081525090506117f8565b600082905060005b600082146116ca5780806116b3906125e9565b915050600a826116c39190612411565b91506116a0565b60008167ffffffffffffffff81111561170c577f4e487b7100000000000000000000000000000000000000000000000000000000600052604160045260246000fd5b6040519080825280601f01601f19166020018201604052801561173e5781602001600182028036833780820191505090505b5090505b600085146117f157600182611757919061249c565b9150600a856117669190612632565b603061177291906123bb565b60f81b8183815181106117ae577f4e487b7100000000000000000000000000000000000000000000000000000000600052603260045260246000fd5b60200101907effffffffffffffffffffffffffffffffffffffffffffffffffffffffffffff1916908160001a905350600a856117ea9190612411565b9450611742565b8093505050505b919050565b505050565b505050565b60006118288473ffffffffffffffffffffffffffffffffffffffff1661199e565b15611991578373ffffffffffffffffffffffffffffffffffffffff1663150b7a0261185161106a565b8786866040518563ffffffff1660e01b81526004016118739493929190611ff9565b602060405180830381600087803b15801561188d57600080fd5b505af19250505080156118be57506040513d601f19601f820116820180604052508101906118bb9190611c8b565b60015b611941573d80600081146118ee576040519150601f19603f3d011682016040523d82523d6000602084013e6118f3565b606091505b50600081511415611939576040517f08c379a0000000000000000000000000000000000000000000000000000000008152600401611930906120b9565b60405180910390fd5b805181602001fd5b63150b7a0260e01b7bffffffffffffffffffffffffffffffffffffffffffffffffffffffff1916817bffffffffffffffffffffffffffffffffffffffffffffffffffffffff191614915050611996565b600190505b949350505050565b6000808273ffffffffffffffffffffffffffffffffffffffff163b119050919050565b60006119d46119cf84612347565b612322565b9050828152602081018484840111156119ec57600080fd5b6119f7848285612544565b509392505050565b600081359050611a0e81612b5f565b92915050565b600081359050611a2381612b76565b92915050565b600081359050611a3881612b8d565b92915050565b600081519050611a4d81612b8d565b92915050565b600082601f830112611a6457600080fd5b8135611a748482602086016119c1565b91505092915050565b600081359050611a8c81612ba4565b92915050565b600060208284031215611aa457600080fd5b6000611ab2848285016119ff565b91505092915050565b60008060408385031215611ace57600080fd5b6000611adc858286016119ff565b9250506020611aed858286016119ff565b9150509250929050565b600080600060608486031215611b0c57600080fd5b6000611b1a868287016119ff565b9350506020611b2b868287016119ff565b9250506040611b3c86828701611a7d565b9150509250925092565b60008060008060808587031215611b5c57600080fd5b6000611b6a878288016119ff565b9450506020611b7b878288016119ff565b9350506040611b8c87828801611a7d565b925050606085013567ffffffffffffffff811115611ba957600080fd5b611bb587828801611a53565b91505092959194509250565b60008060408385031215611bd457600080fd5b6000611be2858286016119ff565b9250506020611bf385828601611a14565b9150509250929050565b60008060408385031215611c1057600080fd5b6000611c1e858286016119ff565b9250506020611c2f85828601611a7d565b9150509250929050565b600060208284031215611c4b57600080fd5b6000611c5984828501611a14565b91505092915050565b600060208284031215611c7457600080fd5b6000611c8284828501611a29565b91505092915050565b600060208284031215611c9d57600080fd5b6000611cab84828501611a3e565b91505092915050565b600060208284031215611cc657600080fd5b6000611cd484828501611a7d565b91505092915050565b611ce6816124d0565b82525050565b611cf5816124e2565b82525050565b6000611d0682612378565b611d10818561238e565b9350611d20818560208601612553565b611d298161271f565b840191505092915050565b6000611d3f82612383565b611d49818561239f565b9350611d59818560208601612553565b611d628161271f565b840191505092915050565b6000611d7882612383565b611d8281856123b0565b9350611d92818560208601612553565b80840191505092915050565b6000611dab60328361239f565b9150611db682612730565b604082019050919050565b6000611dce60258361239f565b9150611dd98261277f565b604082019050919050565b6000611df160248361239f565b9150611dfc826127ce565b604082019050919050565b6000611e1460198361239f565b9150611e1f8261281d565b602082019050919050565b6000611e37602c8361239f565b9150611e4282612846565b604082019050919050565b6000611e5a60388361239f565b9150611e6582612895565b604082019050919050565b6000611e7d602a8361239f565b9150611e88826128e4565b604082019050919050565b6000611ea060298361239f565b9150611eab82612933565b604082019050919050565b6000611ec3602c8361239f565b9150611ece82612982565b604082019050919050565b6000611ee6600e8361239f565b9150611ef1826129d1565b602082019050919050565b6000611f09602f8361239f565b9150611f14826129fa565b604082019050919050565b6000611f2c60218361239f565b9150611f3782612a49565b604082019050919050565b6000611f4f60318361239f565b9150611f5a82612a98565b604082019050919050565b6000611f7260248361239f565b9150611f7d82612ae7565b604082019050919050565b6000611f95600e8361239f565b9150611fa082612b36565b602082019050919050565b611fb48161253a565b82525050565b6000611fc68285611d6d565b9150611fd28284611d6d565b91508190509392505050565b6000602082019050611ff36000830184611cdd565b92915050565b600060808201905061200e6000830187611cdd565b61201b6020830186611cdd565b6120286040830185611fab565b818103606083015261203a8184611cfb565b905095945050505050565b600060608201905061205a6000830186611cdd565b6120676020830185611fab565b6120746040830184611cec565b949350505050565b60006020820190506120916000830184611cec565b92915050565b600060208201905081810360008301526120b18184611d34565b905092915050565b600060208201905081810360008301526120d281611d9e565b9050919050565b600060208201905081810360008301526120f281611dc1565b9050919050565b6000602082019050818103600083015261211281611de4565b9050919050565b6000602082019050818103600083015261213281611e07565b9050919050565b6000602082019050818103600083015261215281611e2a565b9050919050565b6000602082019050818103600083015261217281611e4d565b9050919050565b6000602082019050818103600083015261219281611e70565b9050919050565b600060208201905081810360008301526121b281611e93565b9050919050565b600060208201905081810360008301526121d281611eb6565b9050919050565b600060208201905081810360008301526121f281611ed9565b9050919050565b6000602082019050818103600083015261221281611efc565b9050919050565b6000602082019050818103600083015261223281611f1f565b9050919050565b6000602082019050818103600083015261225281611f42565b9050919050565b6000602082019050818103600083015261227281611f65565b9050919050565b6000602082019050818103600083015261229281611f88565b9050919050565b60006020820190506122ae6000830184611fab565b92915050565b60006060820190506122c96000830186611fab565b6122d66020830185611cec565b6122e36040830184611fab565b949350505050565b60006060820190506123006000830186611fab565b61230d6020830185611fab565b61231a6040830184611cec565b949350505050565b600061232c61233d565b905061233882826125b8565b919050565b6000604051905090565b600067ffffffffffffffff821115612362576123616126f0565b5b61236b8261271f565b9050602081019050919050565b600081519050919050565b600081519050919050565b600082825260208201905092915050565b600082825260208201905092915050565b600081905092915050565b60006123c68261253a565b91506123d18361253a565b9250827fffffffffffffffffffffffffffffffffffffffffffffffffffffffffffffffff0382111561240657612405612663565b5b828201905092915050565b600061241c8261253a565b91506124278361253a565b92508261243757612436612692565b5b828204905092915050565b600061244d8261253a565b91506124588361253a565b9250817fffffffffffffffffffffffffffffffffffffffffffffffffffffffffffffffff048311821515161561249157612490612663565b5b828202905092915050565b60006124a78261253a565b91506124b28361253a565b9250828210156124c5576124c4612663565b5b828203905092915050565b60006124db8261251a565b9050919050565b60008115159050919050565b60007fffffffff0000000000000000000000000000000000000000000000000000000082169050919050565b600073ffffffffffffffffffffffffffffffffffffffff82169050919050565b6000819050919050565b82818337600083830152505050565b60005b83811015612571578082015181840152602081019050612556565b83811115612580576000848401525b50505050565b6000600282049050600182168061259e57607f821691505b602082108114156125b2576125b16126c1565b5b50919050565b6125c18261271f565b810181811067ffffffffffffffff821117156125e0576125df6126f0565b5b80604052505050565b60006125f48261253a565b91507fffffffffffffffffffffffffffffffffffffffffffffffffffffffffffffffff82141561262757612626612663565b5b600182019050919050565b600061263d8261253a565b91506126488361253a565b92508261265857612657612692565b5b828206905092915050565b7f4e487b7100000000000000000000000000000000000000000000000000000000600052601160045260246000fd5b7f4e487b7100000000000000000000000000000000000000000000000000000000600052601260045260246000fd5b7f4e487b7100000000000000000000000000000000000000000000000000000000600052602260045260246000fd5b7f4e487b7100000000000000000000000000000000000000000000000000000000600052604160045260246000fd5b6000601f19601f8301169050919050565b7f4552433732313a207472616e7366657220746f206e6f6e20455243373231526560008201527f63656976657220696d706c656d656e7465720000000000000000000000000000602082015250565b7f4552433732313a207472616e736665722066726f6d20696e636f72726563742060008201527f6f776e6572000000000000000000000000000000000000000000000000000000602082015250565b7f4552433732313a207472616e7366657220746f20746865207a65726f2061646460008201527f7265737300000000000000000000000000000000000000000000000000000000602082015250565b7f4552433732313a20617070726f766520746f2063616c6c657200000000000000600082015250565b7f4552433732313a206f70657261746f7220717565727920666f72206e6f6e657860008201527f697374656e7420746f6b656e0000000000000000000000000000000000000000602082015250565b7f4552433732313a20617070726f76652063616c6c6572206973206e6f74206f7760008201527f6e6572206e6f7220617070726f76656420666f7220616c6c0000000000000000602082015250565b7f4552433732313a2062616c616e636520717565727920666f7220746865207a6560008201527f726f206164647265737300000000000000000000000000000000000000000000602082015250565b7f4552433732313a206f776e657220717565727920666f72206e6f6e657869737460008201527f656e7420746f6b656e0000000000000000000000000000000000000000000000602082015250565b7f4552433732313a20617070726f76656420717565727920666f72206e6f6e657860008201527f697374656e7420746f6b656e0000000000000000000000000000000000000000602082015250565b7f496e76616c696420626574204944000000000000000000000000000000000000600082015250565b7f4552433732314d657461646174613a2055524920717565727920666f72206e6f60008201527f6e6578697374656e7420746f6b656e0000000000000000000000000000000000602082015250565b7f4552433732313a20617070726f76616c20746f2063757272656e74206f776e6560008201527f7200000000000000000000000000000000000000000000000000000000000000602082015250565b7f4552433732313a207472616e736665722063616c6c6572206973206e6f74206f60008201527f776e6572206e6f7220617070726f766564000000000000000000000000000000602082015250565b7f42657420616d6f756e74206d7573742062652067726561746572207468616e2060008201527f7a65726f00000000000000000000000000000000000000000000000000000000602082015250565b7f4e6f7420617574686f72697a6564000000000000000000000000000000000000600082015250565b612b68816124d0565b8114612b7357600080fd5b50565b612b7f816124e2565b8114612b8a57600080fd5b50565b612b96816124ee565b8114612ba157600080fd5b50565b612bad8161253a565b8114612bb857600080fd5b5056fea26469706673582212202fe17b24a8cf1c7be376b84bb5e6021b34db45f93342b1f2bec339a54aedcb9264736f6c63430008010033",
  "immutableReferences": {},
  "source": "// BettingGame.sol\r\npragma solidity ^0.8.1;\r\n\r\nimport \"@openzeppelin/contracts/token/ERC721/ERC721.sol\";\r\n\r\ncontract BettingGame is ERC721 {\r\n    uint256 public betId;\r\n\r\n    event BetPlaced(\r\n        address indexed player,\r\n        uint256 amount,\r\n        uint256 betId,\r\n        bool isHead\r\n    );\r\n    event BetResult(\r\n        address indexed player,\r\n        uint256 amount,\r\n        bool win,\r\n        uint256 betId\r\n    );\r\n\r\n    struct Bet {\r\n        address player;\r\n        uint256 amount;\r\n        bool isHead;\r\n    }\r\n\r\n    mapping(uint256 => Bet) public bets;\r\n\r\n    constructor() ERC721(\"BettingGame\", \"BET\") {}\r\n\r\n    function placeBet(bool _isHead) public payable {\r\n        require(msg.value > 0, \"Bet amount must be greater than zero\");\r\n\r\n        bets[betId] = Bet({\r\n            player: msg.sender,\r\n            amount: msg.value,\r\n            isHead: _isHead\r\n        });\r\n\r\n        emit BetPlaced(msg.sender, msg.value, betId, _isHead);\r\n\r\n        betId++;\r\n    }\r\n\r\n    function resolveBet(uint256 _betId) public {\r\n        require(_betId < betId, \"Invalid bet ID\");\r\n        Bet memory bet = bets[_betId];\r\n\r\n        require(msg.sender == bet.player, \"Not authorized\");\r\n\r\n        // Random outcome (simple pseudo-randomness for demonstration)\r\n        bool outcome = block.timestamp % 2 == 0;\r\n\r\n        bool win = (bet.isHead == outcome);\r\n        uint256 payout = win ? bet.amount * 2 : 0;\r\n\r\n        if (win) {\r\n            payable(bet.player).transfer(payout);\r\n\r\n            emit BetResult(bet.player, payout, win, _betId);\r\n        }\r\n    }\r\n}\r\n",
  "sourcePath": "D:\\University-HCMUS\\Year-4\\Semester-8\\New Tech\\Project-Blockchain\\blockchain-game\\src\\contracts\\BettingGame.sol",
  "compiler": {
    "name": "solc",
    "version": "0.8.1+commit.df193b15.Emscripten.clang"
  },
  "schemaVersion": "3.4.16",
  "updatedAt": "2024-07-10T15:32:12.308Z",
  "networkType": "ethereum",
  "devdoc": {
    "kind": "dev",
    "methods": {
      "approve(address,uint256)": {
        "details": "See {IERC721-approve}."
      },
      "balanceOf(address)": {
        "details": "See {IERC721-balanceOf}."
      },
      "getApproved(uint256)": {
        "details": "See {IERC721-getApproved}."
      },
      "isApprovedForAll(address,address)": {
        "details": "See {IERC721-isApprovedForAll}."
      },
      "name()": {
        "details": "See {IERC721Metadata-name}."
      },
      "ownerOf(uint256)": {
        "details": "See {IERC721-ownerOf}."
      },
      "safeTransferFrom(address,address,uint256)": {
        "details": "See {IERC721-safeTransferFrom}."
      },
      "safeTransferFrom(address,address,uint256,bytes)": {
        "details": "See {IERC721-safeTransferFrom}."
      },
      "setApprovalForAll(address,bool)": {
        "details": "See {IERC721-setApprovalForAll}."
      },
      "supportsInterface(bytes4)": {
        "details": "See {IERC165-supportsInterface}."
      },
      "symbol()": {
        "details": "See {IERC721Metadata-symbol}."
      },
      "tokenURI(uint256)": {
        "details": "See {IERC721Metadata-tokenURI}."
      },
      "transferFrom(address,address,uint256)": {
        "details": "See {IERC721-transferFrom}."
      }
    },
    "version": 1
  },
  "userdoc": {
    "kind": "user",
    "methods": {},
    "version": 1
  }
}