{
  "contractName": "BettingGame",
  "abi": [
    {
      "inputs": [],
      "stateMutability": "nonpayable",
      "type": "constructor"
    },
    {
      "anonymous": false,
      "inputs": [
        {
          "indexed": true,
          "internalType": "address",
          "name": "owner",
          "type": "address"
        },
        {
          "indexed": true,
          "internalType": "address",
          "name": "approved",
          "type": "address"
        },
        {
          "indexed": true,
          "internalType": "uint256",
          "name": "tokenId",
          "type": "uint256"
        }
      ],
      "name": "Approval",
      "type": "event"
    },
    {
      "anonymous": false,
      "inputs": [
        {
          "indexed": true,
          "internalType": "address",
          "name": "owner",
          "type": "address"
        },
        {
          "indexed": true,
          "internalType": "address",
          "name": "operator",
          "type": "address"
        },
        {
          "indexed": false,
          "internalType": "bool",
          "name": "approved",
          "type": "bool"
        }
      ],
      "name": "ApprovalForAll",
      "type": "event"
    },
    {
      "anonymous": false,
      "inputs": [
        {
          "indexed": true,
          "internalType": "address",
          "name": "player",
          "type": "address"
        },
        {
          "indexed": false,
          "internalType": "uint256",
          "name": "amount",
          "type": "uint256"
        },
        {
          "indexed": false,
          "internalType": "uint256",
          "name": "betId",
          "type": "uint256"
        },
        {
          "indexed": false,
          "internalType": "bool",
          "name": "isHead",
          "type": "bool"
        }
      ],
      "name": "BetPlaced",
      "type": "event"
    },
    {
      "anonymous": false,
      "inputs": [
        {
          "indexed": true,
          "internalType": "address",
          "name": "player",
          "type": "address"
        },
        {
          "indexed": false,
          "internalType": "uint256",
          "name": "amount",
          "type": "uint256"
        },
        {
          "indexed": false,
          "internalType": "bool",
          "name": "win",
          "type": "bool"
        },
        {
          "indexed": false,
          "internalType": "uint256",
          "name": "betId",
          "type": "uint256"
        }
      ],
      "name": "BetResult",
      "type": "event"
    },
    {
      "anonymous": false,
      "inputs": [
        {
          "indexed": true,
          "internalType": "address",
          "name": "from",
          "type": "address"
        },
        {
          "indexed": true,
          "internalType": "address",
          "name": "to",
          "type": "address"
        },
        {
          "indexed": true,
          "internalType": "uint256",
          "name": "tokenId",
          "type": "uint256"
        }
      ],
      "name": "Transfer",
      "type": "event"
    },
    {
      "inputs": [
        {
          "internalType": "address",
          "name": "to",
          "type": "address"
        },
        {
          "internalType": "uint256",
          "name": "tokenId",
          "type": "uint256"
        }
      ],
      "name": "approve",
      "outputs": [],
      "stateMutability": "nonpayable",
      "type": "function"
    },
    {
      "inputs": [
        {
          "internalType": "address",
          "name": "owner",
          "type": "address"
        }
      ],
      "name": "balanceOf",
      "outputs": [
        {
          "internalType": "uint256",
          "name": "",
          "type": "uint256"
        }
      ],
      "stateMutability": "view",
      "type": "function",
      "constant": true
    },
    {
      "inputs": [],
      "name": "betId",
      "outputs": [
        {
          "internalType": "uint256",
          "name": "",
          "type": "uint256"
        }
      ],
      "stateMutability": "view",
      "type": "function",
      "constant": true
    },
    {
      "inputs": [
        {
          "internalType": "uint256",
          "name": "",
          "type": "uint256"
        }
      ],
      "name": "bets",
      "outputs": [
        {
          "internalType": "address",
          "name": "player",
          "type": "address"
        },
        {
          "internalType": "uint256",
          "name": "amount",
          "type": "uint256"
        },
        {
          "internalType": "bool",
          "name": "isHead",
          "type": "bool"
        }
      ],
      "stateMutability": "view",
      "type": "function",
      "constant": true
    },
    {
      "inputs": [
        {
          "internalType": "uint256",
          "name": "tokenId",
          "type": "uint256"
        }
      ],
      "name": "getApproved",
      "outputs": [
        {
          "internalType": "address",
          "name": "",
          "type": "address"
        }
      ],
      "stateMutability": "view",
      "type": "function",
      "constant": true
    },
    {
      "inputs": [
        {
          "internalType": "address",
          "name": "owner",
          "type": "address"
        },
        {
          "internalType": "address",
          "name": "operator",
          "type": "address"
        }
      ],
      "name": "isApprovedForAll",
      "outputs": [
        {
          "internalType": "bool",
          "name": "",
          "type": "bool"
        }
      ],
      "stateMutability": "view",
      "type": "function",
      "constant": true
    },
    {
      "inputs": [],
      "name": "name",
      "outputs": [
        {
          "internalType": "string",
          "name": "",
          "type": "string"
        }
      ],
      "stateMutability": "view",
      "type": "function",
      "constant": true
    },
    {
      "inputs": [
        {
          "internalType": "uint256",
          "name": "tokenId",
          "type": "uint256"
        }
      ],
      "name": "ownerOf",
      "outputs": [
        {
          "internalType": "address",
          "name": "",
          "type": "address"
        }
      ],
      "stateMutability": "view",
      "type": "function",
      "constant": true
    },
    {
      "inputs": [
        {
          "internalType": "address",
          "name": "from",
          "type": "address"
        },
        {
          "internalType": "address",
          "name": "to",
          "type": "address"
        },
        {
          "internalType": "uint256",
          "name": "tokenId",
          "type": "uint256"
        }
      ],
      "name": "safeTransferFrom",
      "outputs": [],
      "stateMutability": "nonpayable",
      "type": "function"
    },
    {
      "inputs": [
        {
          "internalType": "address",
          "name": "from",
          "type": "address"
        },
        {
          "internalType": "address",
          "name": "to",
          "type": "address"
        },
        {
          "internalType": "uint256",
          "name": "tokenId",
          "type": "uint256"
        },
        {
          "internalType": "bytes",
          "name": "_data",
          "type": "bytes"
        }
      ],
      "name": "safeTransferFrom",
      "outputs": [],
      "stateMutability": "nonpayable",
      "type": "function"
    },
    {
      "inputs": [
        {
          "internalType": "address",
          "name": "operator",
          "type": "address"
        },
        {
          "internalType": "bool",
          "name": "approved",
          "type": "bool"
        }
      ],
      "name": "setApprovalForAll",
      "outputs": [],
      "stateMutability": "nonpayable",
      "type": "function"
    },
    {
      "inputs": [
        {
          "internalType": "bytes4",
          "name": "interfaceId",
          "type": "bytes4"
        }
      ],
      "name": "supportsInterface",
      "outputs": [
        {
          "internalType": "bool",
          "name": "",
          "type": "bool"
        }
      ],
      "stateMutability": "view",
      "type": "function",
      "constant": true
    },
    {
      "inputs": [],
      "name": "symbol",
      "outputs": [
        {
          "internalType": "string",
          "name": "",
          "type": "string"
        }
      ],
      "stateMutability": "view",
      "type": "function",
      "constant": true
    },
    {
      "inputs": [
        {
          "internalType": "uint256",
          "name": "tokenId",
          "type": "uint256"
        }
      ],
      "name": "tokenURI",
      "outputs": [
        {
          "internalType": "string",
          "name": "",
          "type": "string"
        }
      ],
      "stateMutability": "view",
      "type": "function",
      "constant": true
    },
    {
      "inputs": [
        {
          "internalType": "address",
          "name": "from",
          "type": "address"
        },
        {
          "internalType": "address",
          "name": "to",
          "type": "address"
        },
        {
          "internalType": "uint256",
          "name": "tokenId",
          "type": "uint256"
        }
      ],
      "name": "transferFrom",
      "outputs": [],
      "stateMutability": "nonpayable",
      "type": "function"
    },
    {
      "inputs": [
        {
          "internalType": "bool",
          "name": "_isHead",
          "type": "bool"
        }
      ],
      "name": "placeBet",
      "outputs": [],
      "stateMutability": "payable",
      "type": "function",
      "payable": true
    },
    {
      "inputs": [
        {
          "internalType": "uint256",
          "name": "_betId",
          "type": "uint256"
        }
      ],
      "name": "resolveBet",
      "outputs": [],
      "stateMutability": "nonpayable",
      "type": "function"
    }
  ],
  "bytecode": "0x60806040523480156200001157600080fd5b506040518060400160405280600b81526020017f42657474696e6747616d650000000000000000000000000000000000000000008152506040518060400160405280600381526020017f4245540000000000000000000000000000000000000000000000000000000000815250816000908051906020019062000096929190620000b8565b508060019080519060200190620000af929190620000b8565b505050620001cd565b828054620000c69062000168565b90600052602060002090601f016020900481019282620000ea576000855562000136565b82601f106200010557805160ff191683800117855562000136565b8280016001018555821562000136579182015b828111156200013557825182559160200191906001019062000118565b5b50905062000145919062000149565b5090565b5b80821115620001645760008160009055506001016200014a565b5090565b600060028204905060018216806200018157607f821691505b602082108114156200019857620001976200019e565b5b50919050565b7f4e487b7100000000000000000000000000000000000000000000000000000000600052602260045260246000fd5b612c5380620001dd6000396000f3fe6080604052600436106100fe5760003560e01c806342842e0e1161009557806395d89b411161006457806395d89b411461034c578063a22cb46514610377578063b88d4fde146103a0578063c87b56dd146103c9578063e985e9c514610406576100fe565b806342842e0e146102805780634c36c36e146102a95780636352211e146102d257806370a082311461030f576100fe565b8063096a3778116100d1578063096a3778146101d157806322af00fa146101ed57806323b872dd1461022c57806327bce91b14610255576100fe565b806301ffc9a71461010357806306fdde0314610140578063081812fc1461016b578063095ea7b3146101a8575b600080fd5b34801561010f57600080fd5b5061012a60048036038101906101259190611c82565b610443565b604051610137919061209c565b60405180910390f35b34801561014c57600080fd5b50610155610525565b60405161016291906120b7565b60405180910390f35b34801561017757600080fd5b50610192600480360381019061018d9190611cd4565b6105b7565b60405161019f9190611ffe565b60405180910390f35b3480156101b457600080fd5b506101cf60048036038101906101ca9190611c1d565b61063c565b005b6101eb60048036038101906101e69190611c59565b610754565b005b3480156101f957600080fd5b50610214600480360381019061020f9190611cd4565b6108c2565b60405161022393929190612065565b60405180910390f35b34801561023857600080fd5b50610253600480360381019061024e9190611b17565b610919565b005b34801561026157600080fd5b5061026a610979565b60405161027791906122b9565b60405180910390f35b34801561028c57600080fd5b506102a760048036038101906102a29190611b17565b61097f565b005b3480156102b557600080fd5b506102d060048036038101906102cb9190611cd4565b61099f565b005b3480156102de57600080fd5b506102f960048036038101906102f49190611cd4565b610c05565b6040516103069190611ffe565b60405180910390f35b34801561031b57600080fd5b5061033660048036038101906103319190611ab2565b610cb7565b60405161034391906122b9565b60405180910390f35b34801561035857600080fd5b50610361610d6f565b60405161036e91906120b7565b60405180910390f35b34801561038357600080fd5b5061039e60048036038101906103999190611be1565b610e01565b005b3480156103ac57600080fd5b506103c760048036038101906103c29190611b66565b610e17565b005b3480156103d557600080fd5b506103f060048036038101906103eb9190611cd4565b610e79565b6040516103fd91906120b7565b60405180910390f35b34801561041257600080fd5b5061042d60048036038101906104289190611adb565b610f20565b60405161043a919061209c565b60405180910390f35b60007f80ac58cd000000000000000000000000000000000000000000000000000000007bffffffffffffffffffffffffffffffffffffffffffffffffffffffff1916827bffffffffffffffffffffffffffffffffffffffffffffffffffffffff1916148061050e57507f5b5e139f000000000000000000000000000000000000000000000000000000007bffffffffffffffffffffffffffffffffffffffffffffffffffffffff1916827bffffffffffffffffffffffffffffffffffffffffffffffffffffffff1916145b8061051e575061051d82610fb4565b5b9050919050565b606060008054610534906125b7565b80601f0160208091040260200160405190810160405280929190818152602001828054610560906125b7565b80156105ad5780601f10610582576101008083540402835291602001916105ad565b820191906000526020600020905b81548152906001019060200180831161059057829003601f168201915b5050505050905090565b60006105c28261101e565b610601576040517f08c379a00000000000000000000000000000000000000000000000000000000081526004016105f8906121d9565b60405180910390fd5b6004600083815260200190815260200160002060009054906101000a900473ffffffffffffffffffffffffffffffffffffffff169050919050565b600061064782610c05565b90508073ffffffffffffffffffffffffffffffffffffffff168373ffffffffffffffffffffffffffffffffffffffff1614156106b8576040517f08c379a00000000000000000000000000000000000000000000000000000000081526004016106af90612239565b60405180910390fd5b8073ffffffffffffffffffffffffffffffffffffffff166106d761108a565b73ffffffffffffffffffffffffffffffffffffffff16148061070657506107058161070061108a565b610f20565b5b610745576040517f08c379a000000000000000000000000000000000000000000000000000000000815260040161073c90612179565b60405180910390fd5b61074f8383611092565b505050565b60003411610797576040517f08c379a000000000000000000000000000000000000000000000000000000000815260040161078e90612279565b60405180910390fd5b60405180606001604052803373ffffffffffffffffffffffffffffffffffffffff16815260200134815260200182151581525060076000600654815260200190815260200160002060008201518160000160006101000a81548173ffffffffffffffffffffffffffffffffffffffff021916908373ffffffffffffffffffffffffffffffffffffffff1602179055506020820151816001015560408201518160020160006101000a81548160ff0219169083151502179055509050503373ffffffffffffffffffffffffffffffffffffffff167feecad545a2ea4b549fd96ca809f2218e8daec7f3214b4813f4cddbc406ea803e346006548460405161089f9392919061230b565b60405180910390a2600660008154809291906108ba9061261a565b919050555050565b60076020528060005260406000206000915090508060000160009054906101000a900473ffffffffffffffffffffffffffffffffffffffff16908060010154908060020160009054906101000a900460ff16905083565b61092a61092461108a565b8261114b565b610969576040517f08c379a000000000000000000000000000000000000000000000000000000000815260040161096090612259565b60405180910390fd5b610974838383611229565b505050565b60065481565b61099a83838360405180602001604052806000815250610e17565b505050565b60065481106109e3576040517f08c379a00000000000000000000000000000000000000000000000000000000081526004016109da906121f9565b60405180910390fd5b6000600760008381526020019081526020016000206040518060600160405290816000820160009054906101000a900473ffffffffffffffffffffffffffffffffffffffff1673ffffffffffffffffffffffffffffffffffffffff1673ffffffffffffffffffffffffffffffffffffffff168152602001600182015481526020016002820160009054906101000a900460ff1615151515815250509050806000015173ffffffffffffffffffffffffffffffffffffffff163373ffffffffffffffffffffffffffffffffffffffff1614610af2576040517f08c379a0000000000000000000000000000000000000000000000000000000008152600401610ae990612299565b60405180910390fd5b6000600143610b0191906124bc565b409050600060d88260001c901c9050600080600283610b209190612694565b64ffffffffff16149050600081151585604001511515149050600081610b47576000610b59565b60028660200151610b589190612462565b5b9050856000015173ffffffffffffffffffffffffffffffffffffffff166108fc829081150290604051600060405180830381858888f19350505050158015610ba5573d6000803e3d6000fd5b50856000015173ffffffffffffffffffffffffffffffffffffffff167feb446311b6f1618ea6ed378e6b78ded7873f1f1b279cbd759aae44d2145df66882848a604051610bf4939291906122d4565b60405180910390a250505050505050565b6000806002600084815260200190815260200160002060009054906101000a900473ffffffffffffffffffffffffffffffffffffffff169050600073ffffffffffffffffffffffffffffffffffffffff168173ffffffffffffffffffffffffffffffffffffffff161415610cae576040517f08c379a0000000000000000000000000000000000000000000000000000000008152600401610ca5906121b9565b60405180910390fd5b80915050919050565b60008073ffffffffffffffffffffffffffffffffffffffff168273ffffffffffffffffffffffffffffffffffffffff161415610d28576040517f08c379a0000000000000000000000000000000000000000000000000000000008152600401610d1f90612199565b60405180910390fd5b600360008373ffffffffffffffffffffffffffffffffffffffff1673ffffffffffffffffffffffffffffffffffffffff168152602001908152602001600020549050919050565b606060018054610d7e906125b7565b80601f0160208091040260200160405190810160405280929190818152602001828054610daa906125b7565b8015610df75780601f10610dcc57610100808354040283529160200191610df7565b820191906000526020600020905b815481529060010190602001808311610dda57829003601f168201915b5050505050905090565b610e13610e0c61108a565b8383611490565b5050565b610e28610e2261108a565b8361114b565b610e67576040517f08c379a0000000000000000000000000000000000000000000000000000000008152600401610e5e90612259565b60405180910390fd5b610e73848484846115fd565b50505050565b6060610e848261101e565b610ec3576040517f08c379a0000000000000000000000000000000000000000000000000000000008152600401610eba90612219565b60405180910390fd5b6000610ecd611659565b90506000815111610eed5760405180602001604052806000815250610f18565b80610ef784611670565b604051602001610f08929190611fda565b6040516020818303038152906040525b915050919050565b6000600560008473ffffffffffffffffffffffffffffffffffffffff1673ffffffffffffffffffffffffffffffffffffffff16815260200190815260200160002060008373ffffffffffffffffffffffffffffffffffffffff1673ffffffffffffffffffffffffffffffffffffffff16815260200190815260200160002060009054906101000a900460ff16905092915050565b60007f01ffc9a7000000000000000000000000000000000000000000000000000000007bffffffffffffffffffffffffffffffffffffffffffffffffffffffff1916827bffffffffffffffffffffffffffffffffffffffffffffffffffffffff1916149050919050565b60008073ffffffffffffffffffffffffffffffffffffffff166002600084815260200190815260200160002060009054906101000a900473ffffffffffffffffffffffffffffffffffffffff1673ffffffffffffffffffffffffffffffffffffffff1614159050919050565b600033905090565b816004600083815260200190815260200160002060006101000a81548173ffffffffffffffffffffffffffffffffffffffff021916908373ffffffffffffffffffffffffffffffffffffffff160217905550808273ffffffffffffffffffffffffffffffffffffffff1661110583610c05565b73ffffffffffffffffffffffffffffffffffffffff167f8c5be1e5ebec7d5bd14f71427d1e84f3dd0314c0f7b2291e5b200ac8c7c3b92560405160405180910390a45050565b60006111568261101e565b611195576040517f08c379a000000000000000000000000000000000000000000000000000000000815260040161118c90612159565b60405180910390fd5b60006111a083610c05565b90508073ffffffffffffffffffffffffffffffffffffffff168473ffffffffffffffffffffffffffffffffffffffff16148061120f57508373ffffffffffffffffffffffffffffffffffffffff166111f7846105b7565b73ffffffffffffffffffffffffffffffffffffffff16145b80611220575061121f8185610f20565b5b91505092915050565b8273ffffffffffffffffffffffffffffffffffffffff1661124982610c05565b73ffffffffffffffffffffffffffffffffffffffff161461129f576040517f08c379a0000000000000000000000000000000000000000000000000000000008152600401611296906120f9565b60405180910390fd5b600073ffffffffffffffffffffffffffffffffffffffff168273ffffffffffffffffffffffffffffffffffffffff16141561130f576040517f08c379a000000000000000000000000000000000000000000000000000000000815260040161130690612119565b60405180910390fd5b61131a83838361181d565b611325600082611092565b6001600360008573ffffffffffffffffffffffffffffffffffffffff1673ffffffffffffffffffffffffffffffffffffffff168152602001908152602001600020600082825461137591906124bc565b925050819055506001600360008473ffffffffffffffffffffffffffffffffffffffff1673ffffffffffffffffffffffffffffffffffffffff16815260200190815260200160002060008282546113cc91906123db565b92505081905550816002600083815260200190815260200160002060006101000a81548173ffffffffffffffffffffffffffffffffffffffff021916908373ffffffffffffffffffffffffffffffffffffffff160217905550808273ffffffffffffffffffffffffffffffffffffffff168473ffffffffffffffffffffffffffffffffffffffff167fddf252ad1be2c89b69c2b068fc378daa952ba7f163c4a11628f55a4df523b3ef60405160405180910390a461148b838383611822565b505050565b8173ffffffffffffffffffffffffffffffffffffffff168373ffffffffffffffffffffffffffffffffffffffff1614156114ff576040517f08c379a00000000000000000000000000000000000000000000000000000000081526004016114f690612139565b60405180910390fd5b80600560008573ffffffffffffffffffffffffffffffffffffffff1673ffffffffffffffffffffffffffffffffffffffff16815260200190815260200160002060008473ffffffffffffffffffffffffffffffffffffffff1673ffffffffffffffffffffffffffffffffffffffff16815260200190815260200160002060006101000a81548160ff0219169083151502179055508173ffffffffffffffffffffffffffffffffffffffff168373ffffffffffffffffffffffffffffffffffffffff167f17307eab39ab6107e8899845ad3d59bd9653f200f220920489ca2b5937696c31836040516115f0919061209c565b60405180910390a3505050565b611608848484611229565b61161484848484611827565b611653576040517f08c379a000000000000000000000000000000000000000000000000000000000815260040161164a906120d9565b60405180910390fd5b50505050565b606060405180602001604052806000815250905090565b606060008214156116b8576040518060400160405280600181526020017f30000000000000000000000000000000000000000000000000000000000000008152509050611818565b600082905060005b600082146116ea5780806116d39061261a565b915050600a826116e39190612431565b91506116c0565b60008167ffffffffffffffff81111561172c577f4e487b7100000000000000000000000000000000000000000000000000000000600052604160045260246000fd5b6040519080825280601f01601f19166020018201604052801561175e5781602001600182028036833780820191505090505b5090505b600085146118115760018261177791906124bc565b9150600a856117869190612663565b603061179291906123db565b60f81b8183815181106117ce577f4e487b7100000000000000000000000000000000000000000000000000000000600052603260045260246000fd5b60200101907effffffffffffffffffffffffffffffffffffffffffffffffffffffffffffff1916908160001a905350600a8561180a9190612431565b9450611762565b8093505050505b919050565b505050565b505050565b60006118488473ffffffffffffffffffffffffffffffffffffffff166119be565b156119b1578373ffffffffffffffffffffffffffffffffffffffff1663150b7a0261187161108a565b8786866040518563ffffffff1660e01b81526004016118939493929190612019565b602060405180830381600087803b1580156118ad57600080fd5b505af19250505080156118de57506040513d601f19601f820116820180604052508101906118db9190611cab565b60015b611961573d806000811461190e576040519150601f19603f3d011682016040523d82523d6000602084013e611913565b606091505b50600081511415611959576040517f08c379a0000000000000000000000000000000000000000000000000000000008152600401611950906120d9565b60405180910390fd5b805181602001fd5b63150b7a0260e01b7bffffffffffffffffffffffffffffffffffffffffffffffffffffffff1916817bffffffffffffffffffffffffffffffffffffffffffffffffffffffff1916149150506119b6565b600190505b949350505050565b6000808273ffffffffffffffffffffffffffffffffffffffff163b119050919050565b60006119f46119ef84612367565b612342565b905082815260208101848484011115611a0c57600080fd5b611a17848285612575565b509392505050565b600081359050611a2e81612bc1565b92915050565b600081359050611a4381612bd8565b92915050565b600081359050611a5881612bef565b92915050565b600081519050611a6d81612bef565b92915050565b600082601f830112611a8457600080fd5b8135611a948482602086016119e1565b91505092915050565b600081359050611aac81612c06565b92915050565b600060208284031215611ac457600080fd5b6000611ad284828501611a1f565b91505092915050565b60008060408385031215611aee57600080fd5b6000611afc85828601611a1f565b9250506020611b0d85828601611a1f565b9150509250929050565b600080600060608486031215611b2c57600080fd5b6000611b3a86828701611a1f565b9350506020611b4b86828701611a1f565b9250506040611b5c86828701611a9d565b9150509250925092565b60008060008060808587031215611b7c57600080fd5b6000611b8a87828801611a1f565b9450506020611b9b87828801611a1f565b9350506040611bac87828801611a9d565b925050606085013567ffffffffffffffff811115611bc957600080fd5b611bd587828801611a73565b91505092959194509250565b60008060408385031215611bf457600080fd5b6000611c0285828601611a1f565b9250506020611c1385828601611a34565b9150509250929050565b60008060408385031215611c3057600080fd5b6000611c3e85828601611a1f565b9250506020611c4f85828601611a9d565b9150509250929050565b600060208284031215611c6b57600080fd5b6000611c7984828501611a34565b91505092915050565b600060208284031215611c9457600080fd5b6000611ca284828501611a49565b91505092915050565b600060208284031215611cbd57600080fd5b6000611ccb84828501611a5e565b91505092915050565b600060208284031215611ce657600080fd5b6000611cf484828501611a9d565b91505092915050565b611d06816124f0565b82525050565b611d1581612502565b82525050565b6000611d2682612398565b611d3081856123ae565b9350611d40818560208601612584565b611d4981612781565b840191505092915050565b6000611d5f826123a3565b611d6981856123bf565b9350611d79818560208601612584565b611d8281612781565b840191505092915050565b6000611d98826123a3565b611da281856123d0565b9350611db2818560208601612584565b80840191505092915050565b6000611dcb6032836123bf565b9150611dd682612792565b604082019050919050565b6000611dee6025836123bf565b9150611df9826127e1565b604082019050919050565b6000611e116024836123bf565b9150611e1c82612830565b604082019050919050565b6000611e346019836123bf565b9150611e3f8261287f565b602082019050919050565b6000611e57602c836123bf565b9150611e62826128a8565b604082019050919050565b6000611e7a6038836123bf565b9150611e85826128f7565b604082019050919050565b6000611e9d602a836123bf565b9150611ea882612946565b604082019050919050565b6000611ec06029836123bf565b9150611ecb82612995565b604082019050919050565b6000611ee3602c836123bf565b9150611eee826129e4565b604082019050919050565b6000611f06600e836123bf565b9150611f1182612a33565b602082019050919050565b6000611f29602f836123bf565b9150611f3482612a5c565b604082019050919050565b6000611f4c6021836123bf565b9150611f5782612aab565b604082019050919050565b6000611f6f6031836123bf565b9150611f7a82612afa565b604082019050919050565b6000611f926024836123bf565b9150611f9d82612b49565b604082019050919050565b6000611fb5600e836123bf565b9150611fc082612b98565b602082019050919050565b611fd48161255a565b82525050565b6000611fe68285611d8d565b9150611ff28284611d8d565b91508190509392505050565b60006020820190506120136000830184611cfd565b92915050565b600060808201905061202e6000830187611cfd565b61203b6020830186611cfd565b6120486040830185611fcb565b818103606083015261205a8184611d1b565b905095945050505050565b600060608201905061207a6000830186611cfd565b6120876020830185611fcb565b6120946040830184611d0c565b949350505050565b60006020820190506120b16000830184611d0c565b92915050565b600060208201905081810360008301526120d18184611d54565b905092915050565b600060208201905081810360008301526120f281611dbe565b9050919050565b6000602082019050818103600083015261211281611de1565b9050919050565b6000602082019050818103600083015261213281611e04565b9050919050565b6000602082019050818103600083015261215281611e27565b9050919050565b6000602082019050818103600083015261217281611e4a565b9050919050565b6000602082019050818103600083015261219281611e6d565b9050919050565b600060208201905081810360008301526121b281611e90565b9050919050565b600060208201905081810360008301526121d281611eb3565b9050919050565b600060208201905081810360008301526121f281611ed6565b9050919050565b6000602082019050818103600083015261221281611ef9565b9050919050565b6000602082019050818103600083015261223281611f1c565b9050919050565b6000602082019050818103600083015261225281611f3f565b9050919050565b6000602082019050818103600083015261227281611f62565b9050919050565b6000602082019050818103600083015261229281611f85565b9050919050565b600060208201905081810360008301526122b281611fa8565b9050919050565b60006020820190506122ce6000830184611fcb565b92915050565b60006060820190506122e96000830186611fcb565b6122f66020830185611d0c565b6123036040830184611fcb565b949350505050565b60006060820190506123206000830186611fcb565b61232d6020830185611fcb565b61233a6040830184611d0c565b949350505050565b600061234c61235d565b905061235882826125e9565b919050565b6000604051905090565b600067ffffffffffffffff82111561238257612381612752565b5b61238b82612781565b9050602081019050919050565b600081519050919050565b600081519050919050565b600082825260208201905092915050565b600082825260208201905092915050565b600081905092915050565b60006123e68261255a565b91506123f18361255a565b9250827fffffffffffffffffffffffffffffffffffffffffffffffffffffffffffffffff03821115612426576124256126c5565b5b828201905092915050565b600061243c8261255a565b91506124478361255a565b925082612457576124566126f4565b5b828204905092915050565b600061246d8261255a565b91506124788361255a565b9250817fffffffffffffffffffffffffffffffffffffffffffffffffffffffffffffffff04831182151516156124b1576124b06126c5565b5b828202905092915050565b60006124c78261255a565b91506124d28361255a565b9250828210156124e5576124e46126c5565b5b828203905092915050565b60006124fb8261253a565b9050919050565b60008115159050919050565b60007fffffffff0000000000000000000000000000000000000000000000000000000082169050919050565b600073ffffffffffffffffffffffffffffffffffffffff82169050919050565b6000819050919050565b600064ffffffffff82169050919050565b82818337600083830152505050565b60005b838110156125a2578082015181840152602081019050612587565b838111156125b1576000848401525b50505050565b600060028204905060018216806125cf57607f821691505b602082108114156125e3576125e2612723565b5b50919050565b6125f282612781565b810181811067ffffffffffffffff8211171561261157612610612752565b5b80604052505050565b60006126258261255a565b91507fffffffffffffffffffffffffffffffffffffffffffffffffffffffffffffffff821415612658576126576126c5565b5b600182019050919050565b600061266e8261255a565b91506126798361255a565b925082612689576126886126f4565b5b828206905092915050565b600061269f82612564565b91506126aa83612564565b9250826126ba576126b96126f4565b5b828206905092915050565b7f4e487b7100000000000000000000000000000000000000000000000000000000600052601160045260246000fd5b7f4e487b7100000000000000000000000000000000000000000000000000000000600052601260045260246000fd5b7f4e487b7100000000000000000000000000000000000000000000000000000000600052602260045260246000fd5b7f4e487b7100000000000000000000000000000000000000000000000000000000600052604160045260246000fd5b6000601f19601f8301169050919050565b7f4552433732313a207472616e7366657220746f206e6f6e20455243373231526560008201527f63656976657220696d706c656d656e7465720000000000000000000000000000602082015250565b7f4552433732313a207472616e736665722066726f6d20696e636f72726563742060008201527f6f776e6572000000000000000000000000000000000000000000000000000000602082015250565b7f4552433732313a207472616e7366657220746f20746865207a65726f2061646460008201527f7265737300000000000000000000000000000000000000000000000000000000602082015250565b7f4552433732313a20617070726f766520746f2063616c6c657200000000000000600082015250565b7f4552433732313a206f70657261746f7220717565727920666f72206e6f6e657860008201527f697374656e7420746f6b656e0000000000000000000000000000000000000000602082015250565b7f4552433732313a20617070726f76652063616c6c6572206973206e6f74206f7760008201527f6e6572206e6f7220617070726f76656420666f7220616c6c0000000000000000602082015250565b7f4552433732313a2062616c616e636520717565727920666f7220746865207a6560008201527f726f206164647265737300000000000000000000000000000000000000000000602082015250565b7f4552433732313a206f776e657220717565727920666f72206e6f6e657869737460008201527f656e7420746f6b656e0000000000000000000000000000000000000000000000602082015250565b7f4552433732313a20617070726f76656420717565727920666f72206e6f6e657860008201527f697374656e7420746f6b656e0000000000000000000000000000000000000000602082015250565b7f496e76616c696420626574204944000000000000000000000000000000000000600082015250565b7f4552433732314d657461646174613a2055524920717565727920666f72206e6f60008201527f6e6578697374656e7420746f6b656e0000000000000000000000000000000000602082015250565b7f4552433732313a20617070726f76616c20746f2063757272656e74206f776e6560008201527f7200000000000000000000000000000000000000000000000000000000000000602082015250565b7f4552433732313a207472616e736665722063616c6c6572206973206e6f74206f60008201527f776e6572206e6f7220617070726f766564000000000000000000000000000000602082015250565b7f42657420616d6f756e74206d7573742062652067726561746572207468616e2060008201527f7a65726f00000000000000000000000000000000000000000000000000000000602082015250565b7f4e6f7420617574686f72697a6564000000000000000000000000000000000000600082015250565b612bca816124f0565b8114612bd557600080fd5b50565b612be181612502565b8114612bec57600080fd5b50565b612bf88161250e565b8114612c0357600080fd5b50565b612c0f8161255a565b8114612c1a57600080fd5b5056fea26469706673582212207b09e22cf843fb512020d92d34532b4d0ca2a15428ec64c430a79ab77755f00b64736f6c63430008010033",
  "immutableReferences": {},
  "source": "// BettingGame.sol\r\npragma solidity ^0.8.1;\r\n\r\nimport \"@openzeppelin/contracts/token/ERC721/ERC721.sol\";\r\n\r\ncontract BettingGame is ERC721 {\r\n    uint256 public betId;\r\n\r\n    event BetPlaced(\r\n        address indexed player,\r\n        uint256 amount,\r\n        uint256 betId,\r\n        bool isHead\r\n    );\r\n    event BetResult(\r\n        address indexed player,\r\n        uint256 amount,\r\n        bool win,\r\n        uint256 betId\r\n    );\r\n\r\n    struct Bet {\r\n        address player;\r\n        uint256 amount;\r\n        bool isHead;\r\n    }\r\n\r\n    mapping(uint256 => Bet) public bets;\r\n\r\n    constructor() ERC721(\"BettingGame\", \"BET\") {}\r\n\r\n    function placeBet(bool _isHead) public payable {\r\n        require(msg.value > 0, \"Bet amount must be greater than zero\");\r\n\r\n        bets[betId] = Bet({\r\n            player: msg.sender,\r\n            amount: msg.value,\r\n            isHead: _isHead\r\n        });\r\n\r\n        emit BetPlaced(msg.sender, msg.value, betId, _isHead);\r\n\r\n        betId++;\r\n    }\r\n\r\n    function resolveBet(uint256 _betId) public {\r\n        require(_betId < betId, \"Invalid bet ID\");\r\n        Bet memory bet = bets[_betId];\r\n\r\n        require(msg.sender == bet.player, \"Not authorized\");\r\n\r\n        // Get the block hash of the previous block\r\n        bytes32 blockHash = blockhash(block.number - 1);\r\n\r\n        // Extract the first 5 bytes (10 hex characters) of the block hash\r\n        uint40 firstFiveBytes = uint40(uint256(blockHash) >> (256 - 40));\r\n\r\n        // Generate a random value using the extracted bytes\r\n        bool outcome = firstFiveBytes % 2 == 0;\r\n\r\n        bool win = (bet.isHead == outcome);\r\n        uint256 payout = win ? bet.amount * 2 : 0;\r\n\r\n        payable(bet.player).transfer(payout);\r\n        emit BetResult(bet.player, payout, win, _betId);\r\n    }\r\n}\r\n",
  "sourcePath": "D:\\University-HCMUS\\Year-4\\Semester-8\\New Tech\\Project-Blockchain\\blockchain-game\\src\\contracts\\BettingGame.sol",
  "compiler": {
    "name": "solc",
    "version": "0.8.1+commit.df193b15.Emscripten.clang"
  },
  "schemaVersion": "3.4.16",
  "updatedAt": "2024-07-20T15:00:39.806Z",
  "networkType": "ethereum",
  "devdoc": {
    "kind": "dev",
    "methods": {
      "approve(address,uint256)": {
        "details": "See {IERC721-approve}."
      },
      "balanceOf(address)": {
        "details": "See {IERC721-balanceOf}."
      },
      "getApproved(uint256)": {
        "details": "See {IERC721-getApproved}."
      },
      "isApprovedForAll(address,address)": {
        "details": "See {IERC721-isApprovedForAll}."
      },
      "name()": {
        "details": "See {IERC721Metadata-name}."
      },
      "ownerOf(uint256)": {
        "details": "See {IERC721-ownerOf}."
      },
      "safeTransferFrom(address,address,uint256)": {
        "details": "See {IERC721-safeTransferFrom}."
      },
      "safeTransferFrom(address,address,uint256,bytes)": {
        "details": "See {IERC721-safeTransferFrom}."
      },
      "setApprovalForAll(address,bool)": {
        "details": "See {IERC721-setApprovalForAll}."
      },
      "supportsInterface(bytes4)": {
        "details": "See {IERC165-supportsInterface}."
      },
      "symbol()": {
        "details": "See {IERC721Metadata-symbol}."
      },
      "tokenURI(uint256)": {
        "details": "See {IERC721Metadata-tokenURI}."
      },
      "transferFrom(address,address,uint256)": {
        "details": "See {IERC721-transferFrom}."
      }
    },
    "version": 1
  },
  "userdoc": {
    "kind": "user",
    "methods": {},
    "version": 1
  }
}